:060000000A128A11122809
:10000800FE00030EF3000408F4000A08F50083124A
:1000180003137F08F6000A128A1137280A128A1178
:1000280015280A128A11AC210A128A11A2000A1292
:100038008A11AD210A128A11A3000A128A11AA2173
:100048000A128A11FB000A128A11AB210A128A11BC
:10005800FC00A001A101F701F801F901FA018301EF
:100068000A128A119B290B1D3A283B280F297B036A
:100078007C04031D40284128AD2820082104031DC5
:10008800462847284F28091C4A284B28472801306A
:10009800A0000030A1000A128A11A4210A128A11B4
:1000A8000130F9070318FA0A0030FA071430790604
:1000B8007A04031D602861286C2801308312031319
:1000C8008800FF30A2070318A30AFF30A3079D2862
:1000D800283079067A04031D722873288228033091
:1000E800831203138800FF30A2070318A30AFF3006
:1000F800A30701308500013086009D287A08803AE0
:10010800FF0080307F02031D8B283C307902031CDE
:100118008E288F289D280730831203138800F90141
:10012800FA01A201A301FB01FC010130F700003034
:10013800F800831203132308F1002208F0000A12C2
:100148008A111A210A128A11700883120313870070
:10015800F5287B087C04031DB228B328F528891CE0
:10016800B628B728C52877037804031DBC28BD28FE
:10017800C5288918C028C128BD280508F2007207BB
:100188008500091DC828C928D72877037804031DC6
:10019800CE28CF28D7280919D228D328CF2806084F
:1001A800F2007207860080300506031DDC28DD2872
:1001B800E628803006020318E228E328E628081714
:1001C8000630870080300606031DEB28EC28F5284A
:1001D800803005020318F128F228F52888175B30CB
:1001E8008700891DF828F9280F298919FC28FD2876
:1001F800F9280330A2000030A300A001A1010130BA
:10020800FB000030FC00F701F801F901FA01850153
:100218008601870188017608FF0075088A0074083E
:100228008400730E8300FE0E7E0E09004D293F30B8
:10023800F0000030F10072290630F0000030F100C3
:1002480072295B30F0000030F10072294F30F00065
:100258000030F10072296630F0000030F100722998
:100268006D30F0000030F10072297D30F000003070
:10027800F10072290730F0000030F10072297F3058
:10028800F0000030F10072296F30F0000030F1000A
:1002980072297108003A0319522972297008003A24
:1002A80003191B29013A03192029033A031925299F
:1002B800013A03192A29073A03192F29013A031980
:1002C8003429033A03193929013A03193E290F3A07
:1002D80003194329013A031948297229080083168A
:1002E8000317880189018316031385018601870195
:1002F800880107308900831203138501880186016C
:100308008701831603130F088F3960388F000F1485
:100318008112011281110115811401143D308312DB
:10032800031381000B118B168B170B1708000A1289
:100338008A1173210A128A11A0290A128A11122815
:100348000B113D308312031381000800013400347F
:040358000334003436
:04400E00D420FF3F7C
:00000001FF
