:060000000A128A11122809
:10000800FE00030EF3000408F4000A08F50083124A
:1000180003137F08F6000A128A1137280A128A1178
:1000280015280A128A1198210A128A11A2000A12A6
:100038008A1199210A128A11A3000A128A1196219B
:100048000A128A11FB000A128A1197210A128A11D0
:10005800FC00A001A101F701F801F901FA018301EF
:100068000A128A116C290B1D3A283B28D8287B03D1
:100078007C04031D40284128AD2820082104031DC5
:10008800462847284F28091C4A284B28472801306A
:10009800A0000030A1000A128A1190210A128A11C8
:1000A8000130F9070318FA0A0030FA071430790604
:1000B8007A04031D602861286C2801308312031319
:1000C8008800FF30A2070318A30AFF30A3079D2862
:1000D800283079067A04031D722873288228033091
:1000E800831203138800FF30A2070318A30AFF3006
:1000F800A30701308500013086009D287A08803AE0
:10010800FF0080307F02031D8B283C307902031CDE
:100118008E288F289D280730831203138800F90141
:10012800FA01A201A301FB01FC010130F700003034
:10013800F800831203132308F1002208F0000A12C2
:100148008A11E3200A128A117008831203138700A8
:10015800D8287B087C04031DB228B328D828891C1A
:10016800B628B728C52877037804031DBC28BD28FE
:10017800C5288918C028C128BD280508F2007207BB
:100188008500091DC828C928D82877037804031DC5
:10019800CE28CF28D8280919D228D328CF2806084E
:1001A800F20072078600D8287608FF0075088A00D2
:1001B80074088400730E8300FE0E7E0E09001B294E
:1001C8003F30F0000030F10043290630F0000030E5
:1001D800F10043295B30F0000030F10043294F3033
:1001E800F0000030F10043296630F0000030F100E3
:1001F80043296D30F0000030F10043297D30F000D4
:100208000030F10043290730F0000030F1004329A5
:100218007F30F0000030F10043296F30F0000030EB
:10022800F10043297B30F0000030F10043297108C8
:10023800003A0319202943297008003A0319E428D1
:10024800013A0319E928033A0319EE28013A031978
:10025800F328073A0319F828013A0319FD28033A45
:1002680003190229013A031907290F3A03190C291E
:10027800013A03191129033A0319162943290800D9
:1002880083160317880189018316031385018601E4
:1002980087018801073089008312031385018801CB
:1002A80086018701831603130F088F3960388F0082
:1002B8000F148112011281110115811401143D30AE
:1002C8008312031381000B118B168B170B17080071
:1002D8000A128A1144210A128A1183120313050A89
:1002E800031D772978298029060A03197C297D2985
:1002F8008029403088007129060A031D8429852930
:100308007129050A031989298A29712980308800E9
:1003180071290A128A1112280B113D308312031316
:0C0328008100080001340034033400346C
:04400E00D420FF3F7C
:00000001FF
