:060000000A128A11122809
:10000800FE00030EF2000408F3000A08F40083124D
:1000180003137F08F5000A128A1137280A128A1179
:1000280015280A128A115A210A128A11FA000A128C
:100038008A115B210A128A11FB000A128A115C21BB
:100048000A128A11FC000A128A115D210A128A1109
:10005800FD00A001A101F601F701F801F9018301F2
:100068000A128A113E290B1D3A283B28A6287A0332
:100078007B04031D40284128A62876087704031D21
:10008800462847284F28091C4A284B28472801306A
:10009800F6000030F7000A128A1154210A128A1158
:1000A8000130F8070318F90A0030F9071430780608
:1000B8007904031D602861286C280130831203131A
:1000C8008800FF30FC070318FD0AFF30FD07992858
:1000D800283078067904031D722873287E28033097
:1000E800831203138800FF30FC070318FD0AFF3052
:1000F800FD0799287908803AFF0080307F02031DA8
:1001080087283C307802031C8A288B2899280730D6
:10011800831203138800F801F901FC01FD01FA01BB
:10012800FB010130A0000030A1007D08F1007C082F
:10013800F0000A128A11B1200A128A11700883127B
:10014800031387007508FF0074088A007308840089
:10015800720E8300FE0E7E0E0900E9283F30F00083
:100168000030F10011290630F0000030F1001129AB
:100178005B30F0000030F10011294F30F000003002
:10018800F10011296630F0000030F10011296D30BE
:10019800F0000030F10011297D30F0000030F1004E
:1001A80011290730F0000030F10011297F30F000EC
:1001B8000030F10011296F30F0000030F1001129F2
:1001C8007B30F0000030F10011297108003A031962
:1001D800EE2811297008003A0319B228013A0319C8
:1001E800B728033A0319BC28013A0319C128073A6A
:1001F8000319C628013A0319CB28033A0319D02852
:10020800013A0319D5280F3A0319DA28013A0319D4
:10021800DF28033A0319E428112908008316031775
:1002280088018901831603138501860187018801E6
:10023800073089008312031385018801860187012D
:10024800831603130F088F3960388F000F1481123B
:10025800011281110115811401143D308312031319
:1002680081000B118B168B170C13831603130C17B5
:100278000B1708000A128A1112210A128A1101307A
:100288008312031385000130860020032104031D17
:100298004E294F294329090843290A128A1112288D
:1002A8000B113D3083120313810008000134003420
:0402B80003340034D7
:04400E00D420FF3F7C
:00000001FF
