:060000000A128A11122809
:10000800FE00030EF3000408F4000A08F50083124A
:1000180003137F08F6000A128A1137280A128A1178
:1000280015280A128A119B210A128A11A2000A12A3
:100038008A119C210A128A11A3000A128A11992195
:100048000A128A11FB000A128A119A210A128A11CD
:10005800FC00A001A101F701F801F901FA018301EF
:100068000A128A118A290B1D3A283B28F6287B0395
:100078007C04031D40284128AD2820082104031DC5
:10008800462847284F28091C4A284B28472801306A
:10009800A0000030A1000A128A1193210A128A11C5
:1000A8000130F9070318FA0A0030FA071430790604
:1000B8007A04031D602861286C2801308312031319
:1000C8008800FF30A2070318A30AFF30A3079D2862
:1000D800283079067A04031D722873288228033091
:1000E800831203138800FF30A2070318A30AFF3006
:1000F800A30701308500013086009D287A08803AE0
:10010800FF0080307F02031D8B283C307902031CDE
:100118008E288F289D280730831203138800F90141
:10012800FA01A201A301FB01FC010130F700003034
:10013800F800831203132308F1002208F0000A12C2
:100148008A1101210A128A11700883120313870089
:10015800F6287B087C04031DB228B328F628891CDE
:10016800B628B728C52877037804031DBC28BD28FE
:10017800C5288918C028C128BD280508F2007207BB
:100188008500091DC828C928D72877037804031DC6
:10019800CE28CF28D7280919D228D328CF2806084F
:1001A800F2007207860080300506031DDC28DD2872
:1001B800E628803006020318E228E328E628081714
:1001C8000630870080300606031DEB28EC28F62849
:1001D800803005020318F128F228F62888175B30CA
:1001E8008700F6287608FF0075088A0074088400DE
:1001F800730E8300FE0E7E0E090039293F30F00091
:100208000030F10061290630F0000030F10061296A
:100218005B30F0000030F10061294F30F000003011
:10022800F10061296630F0000030F10061296D307D
:10023800F0000030F10061297D30F0000030F1005D
:1002480061290730F0000030F10061297F30F000AB
:100258000030F10061296F30F0000030F1006129B1
:100268007B30F0000030F10061297108003A031971
:100278003E2961297008003A03190229013A031935
:100288000729033A03190C29013A03191129073AD6
:1002980003191629013A03191B29033A03192029BE
:1002A800013A031925290F3A03192A29013A031992
:1002B8002F29033A031934296129080083160317E3
:1002C8008801890183160313850186018701880146
:1002D800073089008312031385018801860187018D
:1002E800831603130F088F3960388F000F1481129B
:1002F800011281110115811401143D308312031379
:1003080081000B118B168B170B1708000A128A1124
:1003180062210A128A118F290A128A1112280B11D6
:100328003D30831203138100080001340034033484
:0203380000348F
:04400E00D420FF3F7C
:00000001FF
