:060000000A128A11122809
:10000800FE00030EF2000408F3000A08F40083124D
:1000180003137F08F5000A128A1135280A128A117B
:1000280015280A128A1162210A128A11FA000A1284
:100038008A1163210A128A11FB000A128A116421AB
:100048000A128A11FC000A128A1165210A128A1101
:10005800FD00F601F701F801F90183010A128A117E
:1000680053290B1D38283928BB287A037B04031D24
:100078003E283F28BB2876087704031D44284528D6
:100088004D28091C4828492845280130F600003029
:10009800F7000A128A115C210A128A110130F80746
:1000A8000318F90A0030F907143078067904031D9B
:1000B8005E285F286A280130831203138800FF3006
:1000C800FC070318FD0AFF30FD07AE282830780624
:1000D8007904031D702871287C28033083120313C8
:1000E8008800FF30FC070318FD0AFF30FD07AE2823
:1000F8007908803AFF0080307F02031D85283C3054
:100108007802031C882889289A2807308312031349
:100118008800FF30FC070318FD0AFF30FD07F801CF
:10012800F901FC01FD01FA01FB01AE287908803ACA
:10013800FF0080307F02031DA32851307802031C82
:10014800A628A728AE28F801F901FC01FD01FA014B
:10015800FB01AE287D08F1007C08F0000A128A1124
:10016800C6200A128A1170088312031387007508C3
:10017800FF0074088A0073088400720E8300FE0E64
:100188007E0E0900FE283F30F0000030F1002629DD
:100198000630F0000030F10026295B30F000003016
:1001A800F10026294F30F0000030F1002629663092
:1001B800F0000030F10026296D30F0000030F10029
:1001C80026297D30F0000030F10026290730F000A4
:1001D8000030F10026297F30F0000030F100262998
:1001E8006F30F0000030F10026297B30F00000303D
:1001F800F10026297108003A0319032926297008F5
:10020800003A0319C728013A0319CC28033A0319FD
:10021800D128013A0319D628073A0319DB28013AED
:100228000319E028033A0319E528013A0319EA28D3
:100238000F3A0319EF28013A0319F428033A03196E
:10024800F9282629080083160317880189018316CF
:10025800031385018601870188010730890083120D
:1002680003138501880186018701831603130F088C
:100278008F3960388F000F14811201128111011516
:10028800811401143D308312031381000B118B1666
:100298008B170C13831603130C170B1708000A127D
:1002A8008A1127210A128A1158290A128A1112283A
:1002B8000B113D3083120313810008000134003410
:0402C80003340034C7
:04400E00D420FF3F7C
:00000001FF
